{
    "_format": "hh-sol-artifact-1",
    "contractName": "ElectionPortal",
    "sourceName": "contracts/ElectionPortal.sol",
    "abi": [
        {
            "inputs": [],
            "stateMutability": "payable",
            "type": "constructor"
        },
        {
            "anonymous": false,
            "inputs": [
                {
                    "indexed": true,
                    "internalType": "address",
                    "name": "from",
                    "type": "address"
                },
                {
                    "indexed": false,
                    "internalType": "uint256",
                    "name": "timestamp",
                    "type": "uint256"
                },
                {
                    "indexed": false,
                    "internalType": "string",
                    "name": "candidate",
                    "type": "string"
                }
            ],
            "name": "NewVote",
            "type": "event"
        },
        {
            "inputs": [],
            "name": "getAllVotes",
            "outputs": [
                {
                    "components": [
                        {
                            "internalType": "address",
                            "name": "voter",
                            "type": "address"
                        },
                        {
                            "internalType": "string",
                            "name": "candidate",
                            "type": "string"
                        },
                        {
                            "internalType": "uint256",
                            "name": "timestamp",
                            "type": "uint256"
                        }
                    ],
                    "internalType": "struct ElectionPortal.Vote[]",
                    "name": "",
                    "type": "tuple[]"
                }
            ],
            "stateMutability": "view",
            "type": "function"
        },
        {
            "inputs": [],
            "name": "getTotalVotes",
            "outputs": [
                {
                    "internalType": "uint256",
                    "name": "",
                    "type": "uint256"
                }
            ],
            "stateMutability": "view",
            "type": "function"
        },
        {
            "inputs": [
                {
                    "internalType": "string",
                    "name": "_message",
                    "type": "string"
                }
            ],
            "name": "vote",
            "outputs": [],
            "stateMutability": "nonpayable",
            "type": "function"
        }
    ],
    "bytecode": "0x60806040526200004f6040518060400160405280601981526020017f57652068617665206265656e20636f6e737472756374656421000000000000008152506200005560201b620004a71760201c565b620001df565b620000f5816040516024016200006c9190620001bb565b6040516020818303038152906040527f41304fac000000000000000000000000000000000000000000000000000000007bffffffffffffffffffffffffffffffffffffffffffffffffffffffff19166020820180517bffffffffffffffffffffffffffffffffffffffffffffffffffffffff8381831617835250505050620000f860201b60201c565b50565b60008151905060006a636f6e736f6c652e6c6f679050602083016000808483855afa5050505050565b600081519050919050565b600082825260208201905092915050565b60005b838110156200015d57808201518184015260208101905062000140565b60008484015250505050565b6000601f19601f8301169050919050565b6000620001878262000121565b6200019381856200012c565b9350620001a58185602086016200013d565b620001b08162000169565b840191505092915050565b60006020820190508181036000830152620001d781846200017a565b905092915050565b61107f80620001ef6000396000f3fe608060405234801561001057600080fd5b50600436106100415760003560e01c8063851b6ef2146100465780639a0e7d6614610064578063fc36e15b14610082575b600080fd5b61004e61009e565b60405161005b91906108a0565b60405180910390f35b61006c6101ef565b60405161007991906108d1565b60405180910390f35b61009c60048036038101906100979190610a35565b61023a565b005b60606001805480602002602001604051908101604052809291908181526020016000905b828210156101e657838290600052602060002090600302016040518060600160405290816000820160009054906101000a900473ffffffffffffffffffffffffffffffffffffffff1673ffffffffffffffffffffffffffffffffffffffff1673ffffffffffffffffffffffffffffffffffffffff16815260200160018201805461014b90610aad565b80601f016020809104026020016040519081016040528092919081815260200182805461017790610aad565b80156101c45780601f10610199576101008083540402835291602001916101c4565b820191906000526020600020905b8154815290600101906020018083116101a757829003601f168201915b50505050508152602001600282015481525050815260200190600101906100c2565b50505050905090565b60006102326040518060400160405280601781526020017f5765206861766520256420746f74616c20766f74657321000000000000000000815250600054610540565b600054905090565b600160008082825461024c9190610b0d565b925050819055506102936040518060400160405280600d81526020017f25732068617320766f746564210000000000000000000000000000000000000081525033836105dc565b600160405180606001604052803373ffffffffffffffffffffffffffffffffffffffff16815260200183815260200142815250908060018154018082558091505060019003906000526020600020906003020160009091909190915060008201518160000160006101000a81548173ffffffffffffffffffffffffffffffffffffffff021916908373ffffffffffffffffffffffffffffffffffffffff160217905550602082015181600101908161034b9190610ced565b506040820151816002015550503373ffffffffffffffffffffffffffffffffffffffff167ff3bb4a59f9a41b07650fa6eb0aaaf8f6e78fe9a712e0c0989ee060358403a89c42836040516103a0929190610e09565b60405180910390a26000655af3107a40009050478111156103f6576040517f08c379a00000000000000000000000000000000000000000000000000000000081526004016103ed90610eab565b60405180910390fd5b60003373ffffffffffffffffffffffffffffffffffffffff168260405161041c90610efc565b60006040518083038185875af1925050503d8060008114610459576040519150601f19603f3d011682016040523d82523d6000602084013e61045e565b606091505b50509050806104a2576040517f08c379a000000000000000000000000000000000000000000000000000000000815260040161049990610f83565b60405180910390fd5b505050565b61053d816040516024016104bb9190610fa3565b6040516020818303038152906040527f41304fac000000000000000000000000000000000000000000000000000000007bffffffffffffffffffffffffffffffffffffffffffffffffffffffff19166020820180517bffffffffffffffffffffffffffffffffffffffffffffffffffffffff838183161783525050505061067b565b50565b6105d88282604051602401610556929190610fc5565b6040516020818303038152906040527fb60e72cc000000000000000000000000000000000000000000000000000000007bffffffffffffffffffffffffffffffffffffffffffffffffffffffff19166020820180517bffffffffffffffffffffffffffffffffffffffffffffffffffffffff838183161783525050505061067b565b5050565b6106768383836040516024016105f493929190611004565b6040516020818303038152906040527fe0e9ad4f000000000000000000000000000000000000000000000000000000007bffffffffffffffffffffffffffffffffffffffffffffffffffffffff19166020820180517bffffffffffffffffffffffffffffffffffffffffffffffffffffffff838183161783525050505061067b565b505050565b60008151905060006a636f6e736f6c652e6c6f679050602083016000808483855afa5050505050565b600081519050919050565b600082825260208201905092915050565b6000819050602082019050919050565b600073ffffffffffffffffffffffffffffffffffffffff82169050919050565b60006106fb826106d0565b9050919050565b61070b816106f0565b82525050565b600081519050919050565b600082825260208201905092915050565b60005b8381101561074b578082015181840152602081019050610730565b60008484015250505050565b6000601f19601f8301169050919050565b600061077382610711565b61077d818561071c565b935061078d81856020860161072d565b61079681610757565b840191505092915050565b6000819050919050565b6107b4816107a1565b82525050565b60006060830160008301516107d26000860182610702565b50602083015184820360208601526107ea8282610768565b91505060408301516107ff60408601826107ab565b508091505092915050565b600061081683836107ba565b905092915050565b6000602082019050919050565b6000610836826106a4565b61084081856106af565b935083602082028501610852856106c0565b8060005b8581101561088e578484038952815161086f858261080a565b945061087a8361081e565b925060208a01995050600181019050610856565b50829750879550505050505092915050565b600060208201905081810360008301526108ba818461082b565b905092915050565b6108cb816107a1565b82525050565b60006020820190506108e660008301846108c2565b92915050565b6000604051905090565b600080fd5b600080fd5b600080fd5b600080fd5b7f4e487b7100000000000000000000000000000000000000000000000000000000600052604160045260246000fd5b61094282610757565b810181811067ffffffffffffffff821117156109615761096061090a565b5b80604052505050565b60006109746108ec565b90506109808282610939565b919050565b600067ffffffffffffffff8211156109a05761099f61090a565b5b6109a982610757565b9050602081019050919050565b82818337600083830152505050565b60006109d86109d384610985565b61096a565b9050828152602081018484840111156109f4576109f3610905565b5b6109ff8482856109b6565b509392505050565b600082601f830112610a1c57610a1b610900565b5b8135610a2c8482602086016109c5565b91505092915050565b600060208284031215610a4b57610a4a6108f6565b5b600082013567ffffffffffffffff811115610a6957610a686108fb565b5b610a7584828501610a07565b91505092915050565b7f4e487b7100000000000000000000000000000000000000000000000000000000600052602260045260246000fd5b60006002820490506001821680610ac557607f821691505b602082108103610ad857610ad7610a7e565b5b50919050565b7f4e487b7100000000000000000000000000000000000000000000000000000000600052601160045260246000fd5b6000610b18826107a1565b9150610b23836107a1565b9250828201905080821115610b3b57610b3a610ade565b5b92915050565b60008190508160005260206000209050919050565b60006020601f8301049050919050565b600082821b905092915050565b600060088302610ba37fffffffffffffffffffffffffffffffffffffffffffffffffffffffffffffffff82610b66565b610bad8683610b66565b95508019841693508086168417925050509392505050565b6000819050919050565b6000610bea610be5610be0846107a1565b610bc5565b6107a1565b9050919050565b6000819050919050565b610c0483610bcf565b610c18610c1082610bf1565b848454610b73565b825550505050565b600090565b610c2d610c20565b610c38818484610bfb565b505050565b5b81811015610c5c57610c51600082610c25565b600181019050610c3e565b5050565b601f821115610ca157610c7281610b41565b610c7b84610b56565b81016020851015610c8a578190505b610c9e610c9685610b56565b830182610c3d565b50505b505050565b600082821c905092915050565b6000610cc460001984600802610ca6565b1980831691505092915050565b6000610cdd8383610cb3565b9150826002028217905092915050565b610cf682610711565b67ffffffffffffffff811115610d0f57610d0e61090a565b5b610d198254610aad565b610d24828285610c60565b600060209050601f831160018114610d575760008415610d45578287015190505b610d4f8582610cd1565b865550610db7565b601f198416610d6586610b41565b60005b82811015610d8d57848901518255600182019150602085019450602081019050610d68565b86831015610daa5784890151610da6601f891682610cb3565b8355505b6001600288020188555050505b505050505050565b600082825260208201905092915050565b6000610ddb82610711565b610de58185610dbf565b9350610df581856020860161072d565b610dfe81610757565b840191505092915050565b6000604082019050610e1e60008301856108c2565b8181036020830152610e308184610dd0565b90509392505050565b7f547279696e6720746f207769746864726177206d6f7265206d6f6e657920746860008201527f616e2074686520636f6e7472616374206861732e000000000000000000000000602082015250565b6000610e95603483610dbf565b9150610ea082610e39565b604082019050919050565b60006020820190508181036000830152610ec481610e88565b9050919050565b600081905092915050565b50565b6000610ee6600083610ecb565b9150610ef182610ed6565b600082019050919050565b6000610f0782610ed9565b9150819050919050565b7f4661696c656420746f207769746864726177206d6f6e65792066726f6d20636f60008201527f6e74726163742e00000000000000000000000000000000000000000000000000602082015250565b6000610f6d602783610dbf565b9150610f7882610f11565b604082019050919050565b60006020820190508181036000830152610f9c81610f60565b9050919050565b60006020820190508181036000830152610fbd8184610dd0565b905092915050565b60006040820190508181036000830152610fdf8185610dd0565b9050610fee60208301846108c2565b9392505050565b610ffe816106f0565b82525050565b6000606082019050818103600083015261101e8186610dd0565b905061102d6020830185610ff5565b818103604083015261103f8184610dd0565b905094935050505056fea2646970667358221220d02bcfd46f609f41f51bb8bf13a22fd72118173f8c6b75364db4792a0a7d361764736f6c63430008110033",
    "linkReferences": {},
    "deployedLinkReferences": {}
}